{
  "contractName": "Comment",
  "abi": [
    {
      "constant": true,
      "inputs": [
        {
          "name": "",
          "type": "uint256"
        }
      ],
      "name": "hotels",
      "outputs": [
        {
          "name": "",
          "type": "uint16"
        }
      ],
      "payable": false,
      "stateMutability": "view",
      "type": "function",
      "signature": "0xcd338265"
    },
    {
      "constant": false,
      "inputs": [
        {
          "name": "hotel",
          "type": "uint16"
        },
        {
          "name": "text",
          "type": "string"
        }
      ],
      "name": "addComment",
      "outputs": [],
      "payable": false,
      "stateMutability": "nonpayable",
      "type": "function",
      "signature": "0xce9e03bb"
    },
    {
      "constant": false,
      "inputs": [
        {
          "name": "hotel",
          "type": "uint16"
        },
        {
          "name": "text",
          "type": "string"
        }
      ],
      "name": "deleteComment",
      "outputs": [],
      "payable": false,
      "stateMutability": "nonpayable",
      "type": "function",
      "signature": "0x39dd7e01"
    },
    {
      "constant": true,
      "inputs": [],
      "name": "getAllHotelCommentCount",
      "outputs": [
        {
          "name": "",
          "type": "uint256[]"
        }
      ],
      "payable": false,
      "stateMutability": "view",
      "type": "function",
      "signature": "0xb045792f"
    },
    {
      "constant": true,
      "inputs": [],
      "name": "getHotels",
      "outputs": [
        {
          "name": "",
          "type": "uint16[]"
        }
      ],
      "payable": false,
      "stateMutability": "view",
      "type": "function",
      "signature": "0x0d2e677a"
    },
    {
      "constant": true,
      "inputs": [
        {
          "name": "hotel",
          "type": "uint16"
        }
      ],
      "name": "getAllCommentsOfHotel",
      "outputs": [
        {
          "name": "",
          "type": "string[]"
        }
      ],
      "payable": false,
      "stateMutability": "view",
      "type": "function",
      "signature": "0xc9eb8105"
    },
    {
      "constant": true,
      "inputs": [
        {
          "name": "hotel",
          "type": "uint16"
        }
      ],
      "name": "getHotelCommentCount",
      "outputs": [
        {
          "name": "",
          "type": "uint256"
        }
      ],
      "payable": false,
      "stateMutability": "view",
      "type": "function",
      "signature": "0xaf85423d"
    },
    {
      "constant": true,
      "inputs": [
        {
          "name": "hotel",
          "type": "uint16"
        }
      ],
      "name": "checkHotel",
      "outputs": [
        {
          "name": "",
          "type": "bool"
        }
      ],
      "payable": false,
      "stateMutability": "view",
      "type": "function",
      "signature": "0x95707f8f"
    },
    {
      "constant": true,
      "inputs": [
        {
          "name": "hotel",
          "type": "uint16"
        },
        {
          "name": "text",
          "type": "string"
        }
      ],
      "name": "getCommentIndex",
      "outputs": [
        {
          "name": "",
          "type": "int256"
        }
      ],
      "payable": false,
      "stateMutability": "view",
      "type": "function",
      "signature": "0x598e2a08"
    },
    {
      "constant": true,
      "inputs": [
        {
          "name": "a",
          "type": "string"
        },
        {
          "name": "b",
          "type": "string"
        }
      ],
      "name": "compareString",
      "outputs": [
        {
          "name": "",
          "type": "bool"
        }
      ],
      "payable": false,
      "stateMutability": "pure",
      "type": "function",
      "signature": "0x75b83187"
    }
  ],
  "bytecode": "0x608060405234801561001057600080fd5b50611993806100206000396000f3fe6080604052600436106100a4576000357c0100000000000000000000000000000000000000000000000000000000900463ffffffff1680630d2e677a146100a957806339dd7e01146100d4578063598e2a08146100fd57806375b831871461013a57806395707f8f14610177578063af85423d146101b4578063b045792f146101f1578063c9eb81051461021c578063cd33826514610259578063ce9e03bb14610296575b600080fd5b3480156100b557600080fd5b506100be6102bf565b6040516100cb91906116fd565b60405180910390f35b3480156100e057600080fd5b506100fb60048036036100f6919081019061145a565b61033f565b005b34801561010957600080fd5b50610124600480360361011f919081019061145a565b610607565b604051610131919061175c565b60405180910390f35b34801561014657600080fd5b50610161600480360361015c91908101906113c5565b61075a565b60405161016e9190611741565b60405180910390f35b34801561018357600080fd5b5061019e60048036036101999190810190611431565b6108a5565b6040516101ab9190611741565b60405180910390f35b3480156101c057600080fd5b506101db60048036036101d69190810190611431565b61091e565b6040516101e891906117d2565b60405180910390f35b3480156101fd57600080fd5b50610206610a97565b604051610213919061171f565b60405180910390f35b34801561022857600080fd5b50610243600480360361023e9190810190611431565b610b50565b60405161025091906116db565b60405180910390f35b34801561026557600080fd5b50610280600480360361027b91908101906114ae565b610e31565b60405161028d91906117b7565b60405180910390f35b3480156102a257600080fd5b506102bd60048036036102b8919081019061145a565b610e68565b005b6060600280548060200260200160405190810160405280929190818152602001828054801561033557602002820191906000526020600020906000905b82829054906101000a900461ffff1661ffff16815260200190600201906020826001010492830192600103820291508084116102fc5790505b5050505050905090565b610348826108a5565b1515610389576040517f08c379a000000000000000000000000000000000000000000000000000000000815260040161038090611777565b60405180910390fd5b60008060008461ffff1661ffff168152602001908152602001600020600001826040518082805190602001908083835b6020831015156103de57805182526020820191506020810190506020830392506103b9565b6001836020036101000a038019825116818451168082178552505050505050905001915050908152602001604051809103902060009054906101000a900473ffffffffffffffffffffffffffffffffffffffff1690503373ffffffffffffffffffffffffffffffffffffffff168173ffffffffffffffffffffffffffffffffffffffff161415156104a4576040517f08c379a000000000000000000000000000000000000000000000000000000000815260040161049b90611797565b60405180910390fd5b6000808461ffff1661ffff168152602001908152602001600020600001826040518082805190602001908083835b6020831015156104f757805182526020820191506020810190506020830392506104d2565b6001836020036101000a038019825116818451168082178552505050505050905001915050908152602001604051809103902060006101000a81549073ffffffffffffffffffffffffffffffffffffffff021916905560006105598484610607565b90507fffffffffffffffffffffffffffffffffffffffffffffffffffffffffffffffff81141515610601576040805190810160405280600181526020017f2000000000000000000000000000000000000000000000000000000000000000815250600160008661ffff1661ffff168152602001908152602001600020828154811015156105e257fe5b9060005260206000200190805190602001906105ff92919061114e565b505b50505050565b60008060008091505b600160008661ffff1661ffff1681526020019081526020016000208054905082101561072e5761070a600160008761ffff1661ffff1681526020019081526020016000208381548110151561066157fe5b906000526020600020018054600181600116156101000203166002900480601f0160208091040260200160405190810160405280929190818152602001828054600181600116156101000203166002900480156106ff5780601f106106d4576101008083540402835291602001916106ff565b820191906000526020600020905b8154815290600101906020018083116106e257829003601f168201915b50505050508561075a565b15610719578092505050610754565b80806001019150508180600101925050610610565b7fffffffffffffffffffffffffffffffffffffffffffffffffffffffffffffffff925050505b92915050565b600081518351141561089a5760008351905060008090505b8181101561088f57838181518110151561078857fe5b9060200101517f010000000000000000000000000000000000000000000000000000000000000090047f0100000000000000000000000000000000000000000000000000000000000000027effffffffffffffffffffffffffffffffffffffffffffffffffffffffffffff1916858281518110151561080357fe5b9060200101517f010000000000000000000000000000000000000000000000000000000000000090047f0100000000000000000000000000000000000000000000000000000000000000027effffffffffffffffffffffffffffffffffffffffffffffffffffffffffffff19161415156108825760009250505061089f565b8080600101915050610772565b50600191505061089f565b600090505b92915050565b600080600090505b600280549050811015610913578261ffff166002828154811015156108ce57fe5b90600052602060002090601091828204019190066002029054906101000a900461ffff1661ffff161415610906576001915050610919565b80806001019150506108ad565b50600090505b919050565b6000610929826108a5565b15156109385760009050610a92565b600080905060008090505b600160008561ffff1661ffff16815260200190815260200160002080549050811015610a8c57610a72600160008661ffff1661ffff1681526020019081526020016000208281548110151561099457fe5b906000526020600020018054600181600116156101000203166002900480601f016020809104026020016040519081016040528092919081815260200182805460018160011615610100020316600290048015610a325780601f10610a0757610100808354040283529160200191610a32565b820191906000526020600020905b815481529060010190602001808311610a1557829003601f168201915b50505050506040805190810160405280600181526020017f200000000000000000000000000000000000000000000000000000000000000081525061075a565b1515610a7f576001820191505b8080600101915050610943565b50809150505b919050565b606080600280549050604051908082528060200260200182016040528015610ace5781602001602082028038833980820191505090505b50905060008090505b600280549050811015610b4857610b1f600282815481101515610af657fe5b90600052602060002090601091828204019190066002029054906101000a900461ffff1661091e565b8282815181101515610b2d57fe5b90602001906020020181815250508080600101915050610ad7565b508091505090565b6060610b5b826108a5565b1515610ba45760606000604051908082528060200260200182016040528015610b9857816020015b6060815260200190600190039081610b835790505b50905080915050610e2c565b6000610baf8361091e565b9050606081604051908082528060200260200182016040528015610be757816020015b6060815260200190600190039081610bd25790505b509050600080905060008090505b600160008761ffff1661ffff16815260200190815260200160002080549050811015610e2457610d24600160008861ffff1661ffff16815260200190815260200160002082815481101515610c4657fe5b906000526020600020018054600181600116156101000203166002900480601f016020809104026020016040519081016040528092919081815260200182805460018160011615610100020316600290048015610ce45780601f10610cb957610100808354040283529160200191610ce4565b820191906000526020600020905b815481529060010190602001808311610cc757829003601f168201915b50505050506040805190810160405280600181526020017f200000000000000000000000000000000000000000000000000000000000000081525061075a565b1515610e1757600160008761ffff1661ffff16815260200190815260200160002081815481101515610d5257fe5b906000526020600020018054600181600116156101000203166002900480601f016020809104026020016040519081016040528092919081815260200182805460018160011615610100020316600290048015610df05780601f10610dc557610100808354040283529160200191610df0565b820191906000526020600020905b815481529060010190602001808311610dd357829003601f168201915b50505050508383815181101515610e0357fe5b906020019060200201819052506001820191505b8080600101915050610bf5565b508193505050505b919050565b600281815481101515610e4057fe5b9060005260206000209060109182820401919006600202915054906101000a900461ffff1681565b610e71826108a5565b158015610eba5750610eb8816040805190810160405280600181526020017f200000000000000000000000000000000000000000000000000000000000000081525061075a565b155b15610fe65760206040519081016040526000808461ffff1661ffff1681526020019081526020016000209050506001604051908082528060200260200182016040528015610f1c57816020015b6060815260200190600190039081610f075790505b50600160008461ffff1661ffff1681526020019081526020016000209080519060200190610f4b9291906111ce565b50600282908060018154018082558091505090600182039060005260206000209060109182820401919006600202909192909190916101000a81548161ffff021916908361ffff1602179055505080600160008461ffff1661ffff1681526020019081526020016000206000815481101515610fc357fe5b906000526020600020019080519060200190610fe092919061114e565b5061114a565b611025816040805190810160405280600181526020017f200000000000000000000000000000000000000000000000000000000000000081525061075a565b151561114957336000808461ffff1661ffff168152602001908152602001600020600001826040518082805190602001908083835b60208310151561107f578051825260208201915060208101905060208303925061105a565b6001836020036101000a038019825116818451168082178552505050505050905001915050908152602001604051809103902060006101000a81548173ffffffffffffffffffffffffffffffffffffffff021916908373ffffffffffffffffffffffffffffffffffffffff160217905550600160008361ffff1661ffff16815260200190815260200160002081908060018154018082558091505090600182039060005260206000200160009091929091909150908051906020019061114692919061114e565b50505b5b5050565b828054600181600116156101000203166002900490600052602060002090601f016020900481019282601f1061118f57805160ff19168380011785556111bd565b828001600101855582156111bd579182015b828111156111bc5782518255916020019190600101906111a1565b5b5090506111ca919061122e565b5090565b82805482825590600052602060002090810192821561121d579160200282015b8281111561121c57825182908051906020019061120c929190611253565b50916020019190600101906111ee565b5b50905061122a91906112d3565b5090565b61125091905b8082111561124c576000816000905550600101611234565b5090565b90565b828054600181600116156101000203166002900490600052602060002090601f016020900481019282601f1061129457805160ff19168380011785556112c2565b828001600101855582156112c2579182015b828111156112c15782518255916020019190600101906112a6565b5b5090506112cf919061122e565b5090565b6112fc91905b808211156112f857600081816112ef91906112ff565b506001016112d9565b5090565b90565b50805460018160011615610100020316600290046000825580601f106113255750611344565b601f016020900490600052602060002090810190611343919061122e565b5b50565b600082601f830112151561135a57600080fd5b813561136d6113688261181a565b6117ed565b9150808252602083016020830185838301111561138957600080fd5b611394838284611906565b50505092915050565b60006113a982356118ee565b905092915050565b60006113bd82356118fc565b905092915050565b600080604083850312156113d857600080fd5b600083013567ffffffffffffffff8111156113f257600080fd5b6113fe85828601611347565b925050602083013567ffffffffffffffff81111561141b57600080fd5b61142785828601611347565b9150509250929050565b60006020828403121561144357600080fd5b60006114518482850161139d565b91505092915050565b6000806040838503121561146d57600080fd5b600061147b8582860161139d565b925050602083013567ffffffffffffffff81111561149857600080fd5b6114a485828601611347565b9150509250929050565b6000602082840312156114c057600080fd5b60006114ce848285016113b1565b91505092915050565b60006114e28261186d565b808452602084019350836020820285016114fb85611846565b60005b84811015611534578383038852611516838351611619565b925061152182611899565b91506020880197506001810190506114fe565b508196508694505050505092915050565b600061155082611878565b80845260208401935061156283611853565b60005b82811015611594576115788683516116bd565b611581826118a6565b9150602086019550600181019050611565565b50849250505092915050565b60006115ab82611883565b8084526020840193506115bd83611860565b60005b828110156115ef576115d38683516116cc565b6115dc826118b3565b91506020860195506001810190506115c0565b50849250505092915050565b611604816118c0565b82525050565b611613816118cc565b82525050565b60006116248261188e565b808452611638816020860160208601611915565b61164181611948565b602085010191505092915050565b6000600d82527f4e6f205375636820486f74656c000000000000000000000000000000000000006020830152604082019050919050565b6000601282527f506572736f6e204e6f7420436f727265637400000000000000000000000000006020830152604082019050919050565b6116c6816118d6565b82525050565b6116d5816118e4565b82525050565b600060208201905081810360008301526116f581846114d7565b905092915050565b600060208201905081810360008301526117178184611545565b905092915050565b6000602082019050818103600083015261173981846115a0565b905092915050565b600060208201905061175660008301846115fb565b92915050565b6000602082019050611771600083018461160a565b92915050565b600060208201905081810360008301526117908161164f565b9050919050565b600060208201905081810360008301526117b081611686565b9050919050565b60006020820190506117cc60008301846116bd565b92915050565b60006020820190506117e760008301846116cc565b92915050565b6000604051905081810181811067ffffffffffffffff8211171561181057600080fd5b8060405250919050565b600067ffffffffffffffff82111561183157600080fd5b601f19601f8301169050602081019050919050565b6000602082019050919050565b6000602082019050919050565b6000602082019050919050565b600081519050919050565b600081519050919050565b600081519050919050565b600081519050919050565b6000602082019050919050565b6000602082019050919050565b6000602082019050919050565b60008115159050919050565b6000819050919050565b600061ffff82169050919050565b6000819050919050565b600061ffff82169050919050565b6000819050919050565b82818337600083830152505050565b60005b83811015611933578082015181840152602081019050611918565b83811115611942576000848401525b50505050565b6000601f19601f830116905091905056fea265627a7a7230582094285810b79fed89efd73da78b69d3f95a953b9985504965c0cad055503cc6f46c6578706572696d656e74616cf50037",
  "source": "pragma solidity ^0.5.0;\r\npragma experimental ABIEncoderV2;\r\n\r\ncontract Comment {\r\n    struct senders {\r\n        mapping(string => address) comment;\r\n    }\r\n    mapping(uint16 => senders) senderHandler;\r\n    mapping(uint16 => string[]) textHandler;\r\n    // mapping(uint16 => uint) latestIndex;\r\n    uint16[] public hotels;\r\n    // constructor(uint16[] memory Hotels) public {\r\n    //     hotels = Hotels;\r\n    //     for (uint i = 0; i < Hotels.length; i++) {\r\n    //         senderHandler[hotels[i]] = senders();\r\n    //         textHandler[hotels[i]] = new string[](1);\r\n    //         textHandler[hotels[i]][0] = \"\";\r\n    //     }\r\n    // }\r\n    function addComment(uint16 hotel, string memory text) public {\r\n        if (!checkHotel(hotel) && !compareString(text, \" \")) {\r\n            senderHandler[hotel] = senders();\r\n            textHandler[hotel] = new string[](1);\r\n            hotels.push(hotel);\r\n            // latestIndex[hotel] = 1;\r\n            textHandler[hotel][0] = text;\r\n        }\r\n        else if (!compareString(text, \" \")) {\r\n            senderHandler[hotel].comment[text] = msg.sender;\r\n            textHandler[hotel].push(text);\r\n        }\r\n    }\r\n    function deleteComment(uint16 hotel, string memory text) public {\r\n        require(checkHotel(hotel), \"No Such Hotel\");\r\n        address sender = senderHandler[hotel].comment[text];\r\n        require(sender == msg.sender, \"Person Not Correct\");\r\n        delete senderHandler[hotel].comment[text];\r\n        int index = getCommentIndex(hotel, text);\r\n        if (index != -1) {\r\n            textHandler[hotel][uint256(index)] = \" \";\r\n        }\r\n    }\r\n    function getAllHotelCommentCount() public view returns (uint[] memory) {\r\n        uint[] memory counts;\r\n        counts = new uint[](hotels.length);\r\n        for (uint i = 0; i < hotels.length; i++) {\r\n            counts[i] = uint256(getHotelCommentCount(hotels[i]));\r\n        }\r\n        return counts;\r\n    }\r\n    function getHotels() public view returns (uint16[] memory) {\r\n        return hotels;\r\n    }\r\n    function getAllCommentsOfHotel(uint16 hotel) public view returns(string[] memory) {\r\n        if (!checkHotel(hotel)) {\r\n            string[] memory res = new string[](0);\r\n            return res;\r\n        }\r\n        uint c = getHotelCommentCount(hotel);\r\n        string[] memory HComments = new string[](c);\r\n        uint t = 0;\r\n        for (uint i = 0; i < textHandler[hotel].length; i++) {\r\n            if (!compareString(textHandler[hotel][i], \" \")) {\r\n                HComments[t] = textHandler[hotel][i];\r\n                t += 1;\r\n            }\r\n        }\r\n        return HComments;\r\n    }\r\n    function getHotelCommentCount(uint16 hotel) public view returns (uint) {\r\n        if (!checkHotel(hotel)) return 0;\r\n        uint count = 0;\r\n        for (uint i = 0; i < textHandler[hotel].length; i++) {\r\n            if (!compareString(textHandler[hotel][i], \" \")) count += 1;\r\n        }\r\n        return count;\r\n    }\r\n    function checkHotel(uint16 hotel) public view returns (bool) {\r\n        for (uint i = 0; i < hotels.length; i++) {\r\n            if (hotels[i] == hotel) return true;\r\n        }\r\n        return false;\r\n    }\r\n    function getCommentIndex(uint16 hotel, string memory text) public view returns(int) {\r\n        uint i;\r\n        int c;\r\n        for (i = 0; i < textHandler[hotel].length; i++) {\r\n            if (compareString(textHandler[hotel][i], text)) return c;\r\n            c ++;\r\n        }\r\n        return -1;\r\n    }\r\n    function compareString(string memory a, string memory b) public pure returns(bool) {\r\n        if (bytes(a).length == bytes(b).length) {\r\n            uint s = bytes(a).length;\r\n            for (uint i = 0; i < s; i++) {\r\n                if (bytes(a)[i] != bytes(b)[i]) return false;\r\n            }\r\n            return true;\r\n        }\r\n        else return false;\r\n    }\r\n}",
  "sourcePath": "C:/Users/ansel/Desktop/pet-shop/contracts/Comment.sol",
  "compiler": {
    "name": "solc",
    "version": "0.5.0+commit.1d4f565a.Emscripten.clang"
  },
  "schemaVersion": "3.0.0",
  "updatedAt": "2018-12-31T05:57:48.464Z",
  "devdoc": {
    "methods": {}
  },
  "userdoc": {
    "methods": {}
  }
}